{
  "contractName": "Arena",
  "abi": [
    {
      "inputs": [],
      "stateMutability": "nonpayable",
      "type": "constructor"
    },
    {
      "inputs": [
        {
          "internalType": "uint256",
          "name": "",
          "type": "uint256"
        }
      ],
      "name": "userToken",
      "outputs": [
        {
          "internalType": "address payable",
          "name": "",
          "type": "address"
        }
      ],
      "stateMutability": "view",
      "type": "function",
      "constant": true
    },
    {
      "inputs": [
        {
          "internalType": "uint256",
          "name": "tokenId",
          "type": "uint256"
        },
        {
          "internalType": "uint256",
          "name": "stakeProposed",
          "type": "uint256"
        }
      ],
      "name": "proposeToFight",
      "outputs": [],
      "stateMutability": "nonpayable",
      "type": "function"
    },
    {
      "inputs": [
        {
          "internalType": "uint256",
          "name": "tokenId",
          "type": "uint256"
        }
      ],
      "name": "agreeToFight",
      "outputs": [],
      "stateMutability": "nonpayable",
      "type": "function"
    }
  ],
  "bytecode": "0x608060405234801561001057600080fd5b5033600160006101000a81548173ffffffffffffffffffffffffffffffffffffffff021916908373ffffffffffffffffffffffffffffffffffffffff1602179055506105f8806100616000396000f3fe608060405234801561001057600080fd5b50600436106100415760003560e01c80635e41ab881461004657806372368bdc1461009e578063d7de837e146100d6575b600080fd5b6100726004803603602081101561005c57600080fd5b8101908080359060200190929190505050610104565b604051808273ffffffffffffffffffffffffffffffffffffffff16815260200191505060405180910390f35b6100d4600480360360408110156100b457600080fd5b810190808035906020019092919080359060200190929190505050610137565b005b610102600480360360208110156100ec57600080fd5b810190808035906020019092919050505061019a565b005b60006020528060005260406000206000915054906101000a900473ffffffffffffffffffffffffffffffffffffffff1681565b81600281905550806003819055503360008084815260200190815260200160002060006101000a81548173ffffffffffffffffffffffffffffffffffffffff021916908373ffffffffffffffffffffffffffffffffffffffff1602179055505050565b3373ffffffffffffffffffffffffffffffffffffffff16600080600254815260200190815260200160002060009054906101000a900473ffffffffffffffffffffffffffffffffffffffff1673ffffffffffffffffffffffffffffffffffffffff161415610253576040517f08c379a00000000000000000000000000000000000000000000000000000000081526004018080602001828103825260228152602001806105a16022913960400191505060405180910390fd5b60006040518060600160405280600254815260200183815260200160035481525090503360008084815260200190815260200160002060006101000a81548173ffffffffffffffffffffffffffffffffffffffff021916908373ffffffffffffffffffffffffffffffffffffffff1602179055506102d0816102d5565b505050565b600080600160009054906101000a900473ffffffffffffffffffffffffffffffffffffffff1673ffffffffffffffffffffffffffffffffffffffff1663b863bd3760026040518263ffffffff1660e01b815260040180828152602001915050602060405180830381600087803b15801561034e57600080fd5b505af1158015610362573d6000803e3d6000fd5b505050506040513d602081101561037857600080fd5b810190808051906020019092919050505090506000808260ff1614156104595783600001519050600160009054906101000a900473ffffffffffffffffffffffffffffffffffffffff1673ffffffffffffffffffffffffffffffffffffffff1663ec9b6db985602001516040518263ffffffff1660e01b815260040180828152602001915050602060405180830381600087803b15801561041857600080fd5b505af115801561042c573d6000803e3d6000fd5b505050506040513d602081101561044257600080fd5b810190808051906020019092919050505050610516565b83602001519050600160009054906101000a900473ffffffffffffffffffffffffffffffffffffffff1673ffffffffffffffffffffffffffffffffffffffff1663ec9b6db985600001516040518263ffffffff1660e01b815260040180828152602001915050602060405180830381600087803b1580156104d957600080fd5b505af11580156104ed573d6000803e3d6000fd5b505050506040513d602081101561050357600080fd5b8101908080519060200190929190505050505b60008082815260200190815260200160002060009054906101000a900473ffffffffffffffffffffffffffffffffffffffff1673ffffffffffffffffffffffffffffffffffffffff166108fc60028660400151029081150290604051600060405180830381858888f19350505050158015610595573d6000803e3d6000fd5b50809250505091905056fe596f752063616e6e6f7420666967687420796f7572206f776e20647261676f6e2021a264697066735822122061a0a3cfc9c6cdead90a43eceb64edade0d6424339ec63694024cc6fe79466cf64736f6c63430007060033",
  "immutableReferences": {},
  "source": "pragma solidity ^0.7.6;\n\nimport './Dragon.sol';\nimport '../node_modules/@openzeppelin/contracts/token/ERC721/ERC721.sol';\n\n\ncontract Arena {\n\n    // tokenId => addressFighter\n    mapping (uint256 => address payable) public userToken;\n\n    struct Fight {\n        uint256 fighter_1;\n        uint256 fighter_2;\n        uint256 stake;\n    }\n    Dragon instanceofDragon;\n    \n    uint256 fighter;\n    uint256 stake;\n\n    constructor() {\n        instanceofDragon = Dragon(msg.sender);\n    }\n\n    // choose a dragon to fight and chose an amount to stake\n    function proposeToFight(uint256 tokenId, uint256 stakeProposed) public {\n        fighter = tokenId;\n        stake = stakeProposed;\n\n        userToken[tokenId] = msg.sender;\n    }\n\n    // Staking the same amount as the proposing address\n    // Check the proposals with getProposals\n    // Chooses one with the index and launches the fight\n    function agreeToFight(uint256 tokenId) public {\n\n        require(userToken[fighter] != msg.sender, \"You cannot fight your own dragon !\");\n        \n        Fight memory newFight = Fight(fighter, tokenId, stake);\n\n        userToken[tokenId] = msg.sender;\n        \n        combat(newFight);\n        \n    }\n    \n    // Make two dragons fight\n    // The result of the fight is random and the loser dies\n    function combat(Fight memory fight) internal returns(uint256) {\n\n        uint8 res = uint8(instanceofDragon.random(2));\n        uint256 winner;\n\n        if (res == 0) {\n            winner = fight.fighter_1;\n            instanceofDragon.deadAnimal(fight.fighter_2);\n        }\n\n        else {\n            winner = fight.fighter_2;\n            instanceofDragon.deadAnimal(fight.fighter_1);\n        }\n\n        userToken[winner].transfer(fight.stake*2);\n\n        return winner;\n    }\n}",
  "sourcePath": "/Users/hderoche/project/cryptoNFT/contracts/Arena.sol",
  "compiler": {
    "name": "solc",
    "version": "0.7.6+commit.7338295f.Emscripten.clang"
  },
  "schemaVersion": "3.3.3",
  "updatedAt": "2021-03-21T21:06:00.656Z",
  "networkType": "ethereum",
  "devdoc": {
    "kind": "dev",
    "methods": {},
    "version": 1
  },
  "userdoc": {
    "kind": "user",
    "methods": {},
    "version": 1
  }
}