{
  "contractName": "Auction",
  "abi": [
    {
      "inputs": [],
      "stateMutability": "nonpayable",
      "type": "constructor"
    },
    {
      "inputs": [
        {
          "internalType": "uint256",
          "name": "",
          "type": "uint256"
        }
      ],
      "name": "activeAuctions",
      "outputs": [
        {
          "internalType": "bool",
          "name": "",
          "type": "bool"
        }
      ],
      "stateMutability": "view",
      "type": "function",
      "constant": true
    },
    {
      "inputs": [
        {
          "internalType": "uint256",
          "name": "",
          "type": "uint256"
        }
      ],
      "name": "auctions",
      "outputs": [
        {
          "internalType": "address payable",
          "name": "seller",
          "type": "address"
        },
        {
          "internalType": "address payable",
          "name": "bidder",
          "type": "address"
        },
        {
          "internalType": "uint256",
          "name": "startingPrice",
          "type": "uint256"
        },
        {
          "internalType": "uint256",
          "name": "immediatBuyingPrice",
          "type": "uint256"
        },
        {
          "internalType": "uint256",
          "name": "currentPrice",
          "type": "uint256"
        },
        {
          "internalType": "uint256",
          "name": "deadline",
          "type": "uint256"
        }
      ],
      "stateMutability": "view",
      "type": "function",
      "constant": true
    },
    {
      "inputs": [],
      "name": "nbAuction",
      "outputs": [
        {
          "internalType": "uint256",
          "name": "",
          "type": "uint256"
        }
      ],
      "stateMutability": "view",
      "type": "function",
      "constant": true
    },
    {
      "stateMutability": "payable",
      "type": "receive",
      "payable": true
    },
    {
      "inputs": [
        {
          "internalType": "uint256",
          "name": "tokenId_",
          "type": "uint256"
        },
        {
          "internalType": "uint256",
          "name": "startingPrice_",
          "type": "uint256"
        },
        {
          "internalType": "uint256",
          "name": "immediatBuyingPrice_",
          "type": "uint256"
        }
      ],
      "name": "createAuction",
      "outputs": [
        {
          "internalType": "bool",
          "name": "",
          "type": "bool"
        }
      ],
      "stateMutability": "nonpayable",
      "type": "function"
    },
    {
      "inputs": [
        {
          "internalType": "uint256",
          "name": "_tokenId",
          "type": "uint256"
        },
        {
          "internalType": "uint256",
          "name": "_amount",
          "type": "uint256"
        }
      ],
      "name": "bidOnAuction",
      "outputs": [
        {
          "internalType": "bool",
          "name": "",
          "type": "bool"
        }
      ],
      "stateMutability": "nonpayable",
      "type": "function"
    },
    {
      "inputs": [
        {
          "internalType": "uint256",
          "name": "tokenId",
          "type": "uint256"
        }
      ],
      "name": "immediatBuy",
      "outputs": [
        {
          "internalType": "bool",
          "name": "",
          "type": "bool"
        }
      ],
      "stateMutability": "payable",
      "type": "function",
      "payable": true
    },
    {
      "inputs": [
        {
          "internalType": "address payable",
          "name": "from",
          "type": "address"
        },
        {
          "internalType": "address",
          "name": "to",
          "type": "address"
        },
        {
          "internalType": "uint256",
          "name": "tokenId",
          "type": "uint256"
        }
      ],
      "name": "claimAuction",
      "outputs": [
        {
          "internalType": "bool",
          "name": "success",
          "type": "bool"
        }
      ],
      "stateMutability": "payable",
      "type": "function",
      "payable": true
    }
  ],
  "bytecode": "0x608060405234801561001057600080fd5b506000808190555033600160006101000a81548173ffffffffffffffffffffffffffffffffffffffff021916908373ffffffffffffffffffffffffffffffffffffffff16021790555061117c806100686000396000f3fe6080604052600436106100745760003560e01c80636beb57561161004e5780636beb5756146101cd578063790d8596146102115780639f63512014610262578063cda4beef146102bd5761007b565b80634a670c5d146100805780635166e2b3146100ab578063571a26a01461012f5761007b565b3661007b57005b600080fd5b34801561008c57600080fd5b50610095610322565b6040518082815260200191505060405180910390f35b610117600480360360608110156100c157600080fd5b81019080803573ffffffffffffffffffffffffffffffffffffffff169060200190929190803573ffffffffffffffffffffffffffffffffffffffff16906020019092919080359060200190929190505050610328565b60405180821515815260200191505060405180910390f35b34801561013b57600080fd5b506101686004803603602081101561015257600080fd5b8101908080359060200190929190505050610757565b604051808773ffffffffffffffffffffffffffffffffffffffff1681526020018673ffffffffffffffffffffffffffffffffffffffff168152602001858152602001848152602001838152602001828152602001965050505050505060405180910390f35b6101f9600480360360208110156101e357600080fd5b81019080803590602001909291905050506107d3565b60405180821515815260200191505060405180910390f35b34801561021d57600080fd5b5061024a6004803603602081101561023457600080fd5b8101908080359060200190929190505050610b2e565b60405180821515815260200191505060405180910390f35b34801561026e57600080fd5b506102a56004803603604081101561028557600080fd5b810190808035906020019092919080359060200190929190505050610b4e565b60405180821515815260200191505060405180910390f35b3480156102c957600080fd5b5061030a600480360360608110156102e057600080fd5b81019080803590602001909291908035906020019092919080359060200190929190505050610c5f565b60405180821515815260200191505060405180910390f35b60005481565b6000816003600082815260200190815260200160002060009054906101000a900460ff166103be576040517f08c379a00000000000000000000000000000000000000000000000000000000081526004018080602001828103825260198152602001807f5468652061756374696f6e206973206e6f74206163746976650000000000000081525060200191505060405180910390fd5b6002600084815260200190815260200160002060010160009054906101000a900473ffffffffffffffffffffffffffffffffffffffff1673ffffffffffffffffffffffffffffffffffffffff163373ffffffffffffffffffffffffffffffffffffffff1614610478576040517f08c379a00000000000000000000000000000000000000000000000000000000081526004018080602001828103825260388152602001806110ed6038913960400191505060405180910390fd5b42600260008581526020019081526020016000206005015410610503576040517f08c379a000000000000000000000000000000000000000000000000000000000815260040180806020018281038252601f8152602001807f7468652061756374696f6e206973206e6f742066696e6973686564207965740081525060200191505060405180910390fd5b60026000848152602001908152602001600020600401543414610571576040517f08c379a00000000000000000000000000000000000000000000000000000000081526004018080602001828103825260228152602001806111256022913960400191505060405180910390fd5b600160009054906101000a900473ffffffffffffffffffffffffffffffffffffffff1673ffffffffffffffffffffffffffffffffffffffff166342842e0e6002600086815260200190815260200160002060000160009054906101000a900473ffffffffffffffffffffffffffffffffffffffff166002600087815260200190815260200160002060010160009054906101000a900473ffffffffffffffffffffffffffffffffffffffff16866040518463ffffffff1660e01b8152600401808473ffffffffffffffffffffffffffffffffffffffff1681526020018373ffffffffffffffffffffffffffffffffffffffff1681526020018281526020019350505050600060405180830381600087803b15801561068e57600080fd5b505af11580156106a2573d6000803e3d6000fd5b505050506002600084815260200190815260200160002060000160009054906101000a900473ffffffffffffffffffffffffffffffffffffffff1673ffffffffffffffffffffffffffffffffffffffff166108fc349081150290604051600060405180830381858888f19350505050158015610722573d6000803e3d6000fd5b5060006003600085815260200190815260200160002060006101000a81548160ff021916908315150217905550509392505050565b60026020528060005260406000206000915090508060000160009054906101000a900473ffffffffffffffffffffffffffffffffffffffff16908060010160009054906101000a900473ffffffffffffffffffffffffffffffffffffffff16908060020154908060030154908060040154908060050154905086565b6000816003600082815260200190815260200160002060009054906101000a900460ff16610869576040517f08c379a00000000000000000000000000000000000000000000000000000000081526004018080602001828103825260198152602001807f5468652061756374696f6e206973206e6f74206163746976650000000000000081525060200191505060405180910390fd5b60006002600085815260200190815260200160002060030154116108f5576040517f08c379a00000000000000000000000000000000000000000000000000000000081526004018080602001828103825260188152602001807f4e6f20696d6d656469617420627579696e67207072696365000000000000000081525060200191505060405180910390fd5b34600260008581526020019081526020016000206003015414610980576040517f08c379a00000000000000000000000000000000000000000000000000000000081526004018080602001828103825260178152602001807f546865207072696365206d75737420626520657861637400000000000000000081525060200191505060405180910390fd5b600160009054906101000a900473ffffffffffffffffffffffffffffffffffffffff1673ffffffffffffffffffffffffffffffffffffffff166342842e0e6002600086815260200190815260200160002060000160009054906101000a900473ffffffffffffffffffffffffffffffffffffffff1633866040518463ffffffff1660e01b8152600401808473ffffffffffffffffffffffffffffffffffffffff1681526020018373ffffffffffffffffffffffffffffffffffffffff1681526020018281526020019350505050600060405180830381600087803b158015610a6757600080fd5b505af1158015610a7b573d6000803e3d6000fd5b505050506002600084815260200190815260200160002060000160009054906101000a900473ffffffffffffffffffffffffffffffffffffffff1673ffffffffffffffffffffffffffffffffffffffff166108fc349081150290604051600060405180830381858888f19350505050158015610afb573d6000803e3d6000fd5b5060006003600085815260200190815260200160002060006101000a81548160ff02191690831515021790555050919050565b60036020528060005260406000206000915054906101000a900460ff1681565b6000826003600082815260200190815260200160002060009054906101000a900460ff16610be4576040517f08c379a00000000000000000000000000000000000000000000000000000000081526004018080602001828103825260198152602001807f5468652061756374696f6e206973206e6f74206163746976650000000000000081525060200191505060405180910390fd5b336002600086815260200190815260200160002060010160006101000a81548173ffffffffffffffffffffffffffffffffffffffff021916908373ffffffffffffffffffffffffffffffffffffffff160217905550826002600086815260200190815260200160002060040181905550600191505092915050565b6000836003600082815260200190815260200160002060009054906101000a900460ff16610cf5576040517f08c379a00000000000000000000000000000000000000000000000000000000081526004018080602001828103825260198152602001807f5468652061756374696f6e206973206e6f74206163746976650000000000000081525060200191505060405180910390fd5b600160009054906101000a900473ffffffffffffffffffffffffffffffffffffffff1673ffffffffffffffffffffffffffffffffffffffff16634ebbc92a866040518263ffffffff1660e01b815260040180828152602001915050602060405180830381600087803b158015610d6a57600080fd5b505af1158015610d7e573d6000803e3d6000fd5b505050506040513d6020811015610d9457600080fd5b8101908080519060200190929190505050610dfa576040517f08c379a000000000000000000000000000000000000000000000000000000000815260040180806020018281038252602c8152602001806110c1602c913960400191505060405180910390fd5b3373ffffffffffffffffffffffffffffffffffffffff16600160009054906101000a900473ffffffffffffffffffffffffffffffffffffffff1673ffffffffffffffffffffffffffffffffffffffff16636352211e876040518263ffffffff1660e01b81526004018082815260200191505060206040518083038186803b158015610e8457600080fd5b505afa158015610e98573d6000803e3d6000fd5b505050506040513d6020811015610eae57600080fd5b810190808051906020019092919050505073ffffffffffffffffffffffffffffffffffffffff1614610f48576040517f08c379a00000000000000000000000000000000000000000000000000000000081526004018080602001828103825260208152602001807f54686520746f6b656e20646f6573206e6f742062656c6f6e6720746f20796f7581525060200191505060405180910390fd5b60016003600087815260200190815260200160002060006101000a81548160ff02191690831515021790555060006040518060c001604052803373ffffffffffffffffffffffffffffffffffffffff1681526020013373ffffffffffffffffffffffffffffffffffffffff1681526020018681526020018581526020018681526020016202a30042018152509050806002600088815260200190815260200160002060008201518160000160006101000a81548173ffffffffffffffffffffffffffffffffffffffff021916908373ffffffffffffffffffffffffffffffffffffffff16021790555060208201518160010160006101000a81548173ffffffffffffffffffffffffffffffffffffffff021916908373ffffffffffffffffffffffffffffffffffffffff16021790555060408201518160020155606082015181600301556080820151816004015560a0820151816005015590505060016000808282540192505081905550600192505050939250505056fe5468697320746f6b656e496420646f6573206e6f742062656c6f6e6720746f20746869732061646472657373796f75206d757374206265207468652062696464657220696e206f7264657220746f206578656375746520746869732066756e6374696f6e74686520616d6f756e74206d75737420626520746865206578616374207072696365a2646970667358221220f2fdaf255b6ba7e2777d57c2bea8bd87e6c0199986ad5079e26c58c4fc1b146f64736f6c63430007060033",
  "immutableReferences": {},
  "source": "pragma solidity ^0.7.6;\n\nimport './Dragon.sol';\nimport '../node_modules/@openzeppelin/contracts/token/ERC721/ERC721.sol';\n\ncontract Auction {\n\n    struct AuctionStruct {\n        address payable seller;\n        address payable bidder;\n        uint256 startingPrice;\n        uint256 immediatBuyingPrice;\n        uint currentPrice;\n        uint256 deadline;\n    }\n\n    // keep track of the nb of auctions created\n    uint256 public nbAuction;\n    Dragon instanceofDragon;\n    // mapping the tokenId with the auction struct\n    mapping (uint256 => AuctionStruct) public auctions;\n    mapping (uint256 => bool) public activeAuctions;\n    \n    constructor() {\n        nbAuction = 0;\n        instanceofDragon = Dragon(msg.sender);\n    }\n\n    modifier activeAuction(uint256 tokenId) {\n        require(activeAuctions[tokenId], 'The auction is not active');\n        _;\n    }\n\n    // \n    //  Creating an action based on the criteria defined by the user\n    //  If immediatBuyingPrice is equal to 0, then the buyers cannot buy the token immediatly\n    //  They must bid\n    //\n    /** @dev Create an auction for a specific ERC721 token\n      * @param tokenId_ id of the ERC721 token\n      * @param startingPrice_ starting price for the auction\n      * @param immediatBuyingPrice_ immediat buying price\n      * @return success whether the function succeded or not\n      */\n    function createAuction(uint256 tokenId_, uint256 startingPrice_, uint256 immediatBuyingPrice_ ) public activeAuction(tokenId_) returns(bool) {\n        require(instanceofDragon.exist(tokenId_), 'This tokenId does not belong to this address');\n        require(instanceofDragon.ownerOf(tokenId_) == msg.sender, 'The token does not belong to you');\n        activeAuctions[tokenId_] = true;\n        AuctionStruct memory auction = AuctionStruct(msg.sender, msg.sender, startingPrice_, immediatBuyingPrice_, startingPrice_, block.timestamp + (2 * 1 days) );\n        auctions[tokenId_] = auction;\n        nbAuction += 1;\n        return true;\n    }\n    \n    //\n    // Checks if the auction is still live\n    // Checks if the amount entered is higher than the amount bidded\n    // Returns true if the bid is placed, no if not\n    //\n    /** @dev options for the bidder to bid on token ERC721\n      * @param _tokenId id of the ERC721 token\n      * @param _amount amount to bid\n      * @return success whether the function succeded or not\n      */\n    function bidOnAuction(uint256 _tokenId, uint256 _amount) public activeAuction(_tokenId) returns(bool) {\n        auctions[_tokenId].bidder = msg.sender;\n        auctions[_tokenId].currentPrice = _amount;\n        return true;\n    }\n\n    //\n    // Enables the buyer to buy the token instantly\n    // if 0 then no immediat buying price\n    //\n\n    /** @dev Options for the buyers to buy on predetermined price\n      * @param tokenId id of the ERC721 token\n      * @return success whether the function succeded or not\n      */\n    function immediatBuy(uint256 tokenId) public payable activeAuction(tokenId) returns(bool) {\n        // requirements for instant buying the token, without using the auction\n        require(auctions[tokenId].immediatBuyingPrice > 0, 'No immediat buying price');\n        require(auctions[tokenId].immediatBuyingPrice == msg.value, 'The price must be exact');\n        instanceofDragon.safeTransferFrom(auctions[tokenId].seller, msg.sender, tokenId);\n        // send eth to the seller from the buyer\n        auctions[tokenId].seller.transfer(msg.value);\n        activeAuctions[tokenId] = false;\n    }\n    \n    \n    /** @dev after 2 days of auction, the highest bidder can claim the token, The contract verifies that the token is off the auctions and that the address claiming the token is the one that won the auction.\n      * @param from address of the token holder.\n      * @param to address of the winner bidder.\n      * @param tokenId tokenId of the ERC721\n      * @return success whether the function succeded or not\n      */\n    function claimAuction(address payable from, address to, uint256 tokenId) public payable activeAuction(tokenId) returns(bool success) {\n        \n        // requirements for claiming the token\n        require(    msg.sender == auctions[tokenId].bidder, \n                    'you must be the bidder in order to execute this function');\n        require(    auctions[tokenId].deadline < block.timestamp, \n                    'the auction is not finished yet');\n        require(    msg.value == auctions[tokenId].currentPrice, \n                    'the amount must be the exact price');\n        \n        // sending the token\n        instanceofDragon.safeTransferFrom(auctions[tokenId].seller, auctions[tokenId].bidder, tokenId);\n        // paying the seller\n        auctions[tokenId].seller.transfer(msg.value);\n        activeAuctions[tokenId] = false;\n    }\n\n    // Send ETH to the contract address\n    receive() external payable {\n\n    }\n\n}",
  "sourcePath": "/Users/hderoche/project/cryptoNFT/contracts/Auction.sol",
  "compiler": {
    "name": "solc",
    "version": "0.7.6+commit.7338295f.Emscripten.clang"
  },
  "schemaVersion": "3.3.3",
  "updatedAt": "2021-03-21T21:05:30.850Z",
  "networkType": "ethereum",
  "devdoc": {
    "kind": "dev",
    "methods": {
      "bidOnAuction(uint256,uint256)": {
        "details": "options for the bidder to bid on token ERC721",
        "params": {
          "_amount": "amount to bid",
          "_tokenId": "id of the ERC721 token"
        },
        "returns": {
          "_0": "success whether the function succeded or not"
        }
      },
      "claimAuction(address,address,uint256)": {
        "details": "after 2 days of auction, the highest bidder can claim the token, The contract verifies that the token is off the auctions and that the address claiming the token is the one that won the auction.",
        "params": {
          "from": "address of the token holder.",
          "to": "address of the winner bidder.",
          "tokenId": "tokenId of the ERC721"
        },
        "returns": {
          "success": "whether the function succeded or not"
        }
      },
      "createAuction(uint256,uint256,uint256)": {
        "details": "Create an auction for a specific ERC721 token",
        "params": {
          "immediatBuyingPrice_": "immediat buying price",
          "startingPrice_": "starting price for the auction",
          "tokenId_": "id of the ERC721 token"
        },
        "returns": {
          "_0": "success whether the function succeded or not"
        }
      },
      "immediatBuy(uint256)": {
        "details": "Options for the buyers to buy on predetermined price",
        "params": {
          "tokenId": "id of the ERC721 token"
        },
        "returns": {
          "_0": "success whether the function succeded or not"
        }
      }
    },
    "version": 1
  },
  "userdoc": {
    "kind": "user",
    "methods": {},
    "version": 1
  }
}