{
  "contractName": "Dragon",
  "abi": [
    {
      "inputs": [],
      "stateMutability": "nonpayable",
      "type": "constructor"
    },
    {
      "anonymous": false,
      "inputs": [
        {
          "indexed": true,
          "internalType": "address",
          "name": "owner",
          "type": "address"
        },
        {
          "indexed": true,
          "internalType": "address",
          "name": "approved",
          "type": "address"
        },
        {
          "indexed": true,
          "internalType": "uint256",
          "name": "tokenId",
          "type": "uint256"
        }
      ],
      "name": "Approval",
      "type": "event"
    },
    {
      "anonymous": false,
      "inputs": [
        {
          "indexed": true,
          "internalType": "address",
          "name": "owner",
          "type": "address"
        },
        {
          "indexed": true,
          "internalType": "address",
          "name": "operator",
          "type": "address"
        },
        {
          "indexed": false,
          "internalType": "bool",
          "name": "approved",
          "type": "bool"
        }
      ],
      "name": "ApprovalForAll",
      "type": "event"
    },
    {
      "anonymous": false,
      "inputs": [
        {
          "indexed": true,
          "internalType": "address",
          "name": "from",
          "type": "address"
        },
        {
          "indexed": true,
          "internalType": "address",
          "name": "to",
          "type": "address"
        },
        {
          "indexed": true,
          "internalType": "uint256",
          "name": "tokenId",
          "type": "uint256"
        }
      ],
      "name": "Transfer",
      "type": "event"
    },
    {
      "inputs": [
        {
          "internalType": "address",
          "name": "",
          "type": "address"
        }
      ],
      "name": "allowedBreeders",
      "outputs": [
        {
          "internalType": "bool",
          "name": "",
          "type": "bool"
        }
      ],
      "stateMutability": "view",
      "type": "function",
      "constant": true
    },
    {
      "inputs": [
        {
          "internalType": "address",
          "name": "to",
          "type": "address"
        },
        {
          "internalType": "uint256",
          "name": "tokenId",
          "type": "uint256"
        }
      ],
      "name": "approve",
      "outputs": [],
      "stateMutability": "nonpayable",
      "type": "function"
    },
    {
      "inputs": [
        {
          "internalType": "address",
          "name": "owner",
          "type": "address"
        }
      ],
      "name": "balanceOf",
      "outputs": [
        {
          "internalType": "uint256",
          "name": "",
          "type": "uint256"
        }
      ],
      "stateMutability": "view",
      "type": "function",
      "constant": true
    },
    {
      "inputs": [],
      "name": "baseURI",
      "outputs": [
        {
          "internalType": "string",
          "name": "",
          "type": "string"
        }
      ],
      "stateMutability": "view",
      "type": "function",
      "constant": true
    },
    {
      "inputs": [
        {
          "internalType": "uint256",
          "name": "tokenId",
          "type": "uint256"
        }
      ],
      "name": "getApproved",
      "outputs": [
        {
          "internalType": "address",
          "name": "",
          "type": "address"
        }
      ],
      "stateMutability": "view",
      "type": "function",
      "constant": true
    },
    {
      "inputs": [
        {
          "internalType": "address",
          "name": "owner",
          "type": "address"
        },
        {
          "internalType": "address",
          "name": "operator",
          "type": "address"
        }
      ],
      "name": "isApprovedForAll",
      "outputs": [
        {
          "internalType": "bool",
          "name": "",
          "type": "bool"
        }
      ],
      "stateMutability": "view",
      "type": "function",
      "constant": true
    },
    {
      "inputs": [
        {
          "internalType": "uint256",
          "name": "",
          "type": "uint256"
        }
      ],
      "name": "metadata",
      "outputs": [
        {
          "internalType": "enum Dragon.Element",
          "name": "elem",
          "type": "uint8"
        },
        {
          "internalType": "bool",
          "name": "male",
          "type": "bool"
        },
        {
          "internalType": "uint256",
          "name": "defense",
          "type": "uint256"
        },
        {
          "internalType": "uint256",
          "name": "attack",
          "type": "uint256"
        },
        {
          "internalType": "uint256",
          "name": "hp",
          "type": "uint256"
        },
        {
          "internalType": "uint256",
          "name": "init",
          "type": "uint256"
        }
      ],
      "stateMutability": "view",
      "type": "function",
      "constant": true
    },
    {
      "inputs": [],
      "name": "name",
      "outputs": [
        {
          "internalType": "string",
          "name": "",
          "type": "string"
        }
      ],
      "stateMutability": "view",
      "type": "function",
      "constant": true
    },
    {
      "inputs": [
        {
          "internalType": "uint256",
          "name": "tokenId",
          "type": "uint256"
        }
      ],
      "name": "ownerOf",
      "outputs": [
        {
          "internalType": "address",
          "name": "",
          "type": "address"
        }
      ],
      "stateMutability": "view",
      "type": "function",
      "constant": true
    },
    {
      "inputs": [
        {
          "internalType": "address",
          "name": "from",
          "type": "address"
        },
        {
          "internalType": "address",
          "name": "to",
          "type": "address"
        },
        {
          "internalType": "uint256",
          "name": "tokenId",
          "type": "uint256"
        }
      ],
      "name": "safeTransferFrom",
      "outputs": [],
      "stateMutability": "nonpayable",
      "type": "function"
    },
    {
      "inputs": [
        {
          "internalType": "address",
          "name": "from",
          "type": "address"
        },
        {
          "internalType": "address",
          "name": "to",
          "type": "address"
        },
        {
          "internalType": "uint256",
          "name": "tokenId",
          "type": "uint256"
        },
        {
          "internalType": "bytes",
          "name": "_data",
          "type": "bytes"
        }
      ],
      "name": "safeTransferFrom",
      "outputs": [],
      "stateMutability": "nonpayable",
      "type": "function"
    },
    {
      "inputs": [
        {
          "internalType": "address",
          "name": "operator",
          "type": "address"
        },
        {
          "internalType": "bool",
          "name": "approved",
          "type": "bool"
        }
      ],
      "name": "setApprovalForAll",
      "outputs": [],
      "stateMutability": "nonpayable",
      "type": "function"
    },
    {
      "inputs": [
        {
          "internalType": "bytes4",
          "name": "interfaceId",
          "type": "bytes4"
        }
      ],
      "name": "supportsInterface",
      "outputs": [
        {
          "internalType": "bool",
          "name": "",
          "type": "bool"
        }
      ],
      "stateMutability": "view",
      "type": "function",
      "constant": true
    },
    {
      "inputs": [],
      "name": "symbol",
      "outputs": [
        {
          "internalType": "string",
          "name": "",
          "type": "string"
        }
      ],
      "stateMutability": "view",
      "type": "function",
      "constant": true
    },
    {
      "inputs": [
        {
          "internalType": "uint256",
          "name": "index",
          "type": "uint256"
        }
      ],
      "name": "tokenByIndex",
      "outputs": [
        {
          "internalType": "uint256",
          "name": "",
          "type": "uint256"
        }
      ],
      "stateMutability": "view",
      "type": "function",
      "constant": true
    },
    {
      "inputs": [
        {
          "internalType": "address",
          "name": "owner",
          "type": "address"
        },
        {
          "internalType": "uint256",
          "name": "index",
          "type": "uint256"
        }
      ],
      "name": "tokenOfOwnerByIndex",
      "outputs": [
        {
          "internalType": "uint256",
          "name": "",
          "type": "uint256"
        }
      ],
      "stateMutability": "view",
      "type": "function",
      "constant": true
    },
    {
      "inputs": [
        {
          "internalType": "uint256",
          "name": "tokenId",
          "type": "uint256"
        }
      ],
      "name": "tokenURI",
      "outputs": [
        {
          "internalType": "string",
          "name": "",
          "type": "string"
        }
      ],
      "stateMutability": "view",
      "type": "function",
      "constant": true
    },
    {
      "inputs": [],
      "name": "totalSupply",
      "outputs": [
        {
          "internalType": "uint256",
          "name": "",
          "type": "uint256"
        }
      ],
      "stateMutability": "view",
      "type": "function",
      "constant": true
    },
    {
      "inputs": [
        {
          "internalType": "address",
          "name": "from",
          "type": "address"
        },
        {
          "internalType": "address",
          "name": "to",
          "type": "address"
        },
        {
          "internalType": "uint256",
          "name": "tokenId",
          "type": "uint256"
        }
      ],
      "name": "transferFrom",
      "outputs": [],
      "stateMutability": "nonpayable",
      "type": "function"
    },
    {
      "inputs": [],
      "name": "registerBreed",
      "outputs": [
        {
          "internalType": "bool",
          "name": "",
          "type": "bool"
        }
      ],
      "stateMutability": "nonpayable",
      "type": "function"
    },
    {
      "inputs": [
        {
          "internalType": "uint256",
          "name": "tokenId",
          "type": "uint256"
        }
      ],
      "name": "exist",
      "outputs": [
        {
          "internalType": "bool",
          "name": "",
          "type": "bool"
        }
      ],
      "stateMutability": "nonpayable",
      "type": "function"
    },
    {
      "inputs": [
        {
          "internalType": "uint256",
          "name": "modulo",
          "type": "uint256"
        }
      ],
      "name": "random",
      "outputs": [
        {
          "internalType": "uint256",
          "name": "",
          "type": "uint256"
        }
      ],
      "stateMutability": "nonpayable",
      "type": "function"
    },
    {
      "inputs": [],
      "name": "declareAnimal",
      "outputs": [
        {
          "internalType": "bool",
          "name": "",
          "type": "bool"
        }
      ],
      "stateMutability": "nonpayable",
      "type": "function"
    },
    {
      "inputs": [
        {
          "internalType": "uint256",
          "name": "_tokenId",
          "type": "uint256"
        }
      ],
      "name": "deadAnimal",
      "outputs": [
        {
          "internalType": "bool",
          "name": "",
          "type": "bool"
        }
      ],
      "stateMutability": "nonpayable",
      "type": "function"
    },
    {
      "inputs": [
        {
          "internalType": "uint256",
          "name": "_tokenId1",
          "type": "uint256"
        },
        {
          "internalType": "uint256",
          "name": "_tokenId2",
          "type": "uint256"
        }
      ],
      "name": "breedAnimal",
      "outputs": [],
      "stateMutability": "nonpayable",
      "type": "function"
    }
  ],
  "bytecode": "0x60806040523480156200001157600080fd5b506040518060400160405280600681526020017f447261676f6e00000000000000000000000000000000000000000000000000008152506040518060400160405280600381526020017f4452470000000000000000000000000000000000000000000000000000000000815250620000966301ffc9a760e01b6200012060201b60201c565b8160069080519060200190620000ae92919062000229565b508060079080519060200190620000c792919062000229565b50620000e06380ac58cd60e01b6200012060201b60201c565b620000f8635b5e139f60e01b6200012060201b60201c565b6200011063780e9d6360e01b6200012060201b60201c565b50506000600a81905550620002df565b63ffffffff60e01b817bffffffffffffffffffffffffffffffffffffffffffffffffffffffff19161415620001bd576040517f08c379a000000000000000000000000000000000000000000000000000000000815260040180806020018281038252601c8152602001807f4552433136353a20696e76616c696420696e746572666163652069640000000081525060200191505060405180910390fd5b6001600080837bffffffffffffffffffffffffffffffffffffffffffffffffffffffff19167bffffffffffffffffffffffffffffffffffffffffffffffffffffffff1916815260200190815260200160002060006101000a81548160ff02191690831515021790555050565b828054600181600116156101000203166002900490600052602060002090601f016020900481019282620002615760008555620002ad565b82601f106200027c57805160ff1916838001178555620002ad565b82800160010185558215620002ad579182015b82811115620002ac5782518255916020019190600101906200028f565b5b509050620002bc9190620002c0565b5090565b5b80821115620002db576000816000905550600101620002c1565b5090565b61390f80620002ef6000396000f3fe608060405234801561001057600080fd5b50600436106101735760003560e01c80636c0360eb116100de578063a22cb46511610097578063c87b56dd11610071578063c87b56dd14610905578063e3684e39146109ac578063e985e9c514610a1e578063ec9b6db914610a9857610173565b8063a22cb4651461076e578063b863bd37146107be578063b88d4fde1461080057610173565b80636c0360eb1461057657806370a08231146105f957806371991fb314610651578063842ad74c1461067157806395bab8b01461069157806395d89b41146106eb57610173565b80632f745c59116101305780632f745c591461039057806342842e0e146103f25780634ebbc92a146104605780634f6ccce7146104a45780635e6bab68146104e65780636352211e1461051e57610173565b806301ffc9a71461017857806306fdde03146101db578063081812fc1461025e578063095ea7b3146102b657806318160ddd1461030457806323b872dd14610322575b600080fd5b6101c36004803603602081101561018e57600080fd5b8101908080357bffffffffffffffffffffffffffffffffffffffffffffffffffffffff19169060200190929190505050610adc565b60405180821515815260200191505060405180910390f35b6101e3610b43565b6040518080602001828103825283818151815260200191508051906020019080838360005b83811015610223578082015181840152602081019050610208565b50505050905090810190601f1680156102505780820380516001836020036101000a031916815260200191505b509250505060405180910390f35b61028a6004803603602081101561027457600080fd5b8101908080359060200190929190505050610be5565b604051808273ffffffffffffffffffffffffffffffffffffffff16815260200191505060405180910390f35b610302600480360360408110156102cc57600080fd5b81019080803573ffffffffffffffffffffffffffffffffffffffff16906020019092919080359060200190929190505050610c80565b005b61030c610dc4565b6040518082815260200191505060405180910390f35b61038e6004803603606081101561033857600080fd5b81019080803573ffffffffffffffffffffffffffffffffffffffff169060200190929190803573ffffffffffffffffffffffffffffffffffffffff16906020019092919080359060200190929190505050610dd5565b005b6103dc600480360360408110156103a657600080fd5b81019080803573ffffffffffffffffffffffffffffffffffffffff16906020019092919080359060200190929190505050610e4b565b6040518082815260200191505060405180910390f35b61045e6004803603606081101561040857600080fd5b81019080803573ffffffffffffffffffffffffffffffffffffffff169060200190929190803573ffffffffffffffffffffffffffffffffffffffff16906020019092919080359060200190929190505050610ea6565b005b61048c6004803603602081101561047657600080fd5b8101908080359060200190929190505050610ec6565b60405180821515815260200191505060405180910390f35b6104d0600480360360208110156104ba57600080fd5b8101908080359060200190929190505050610ed8565b6040518082815260200191505060405180910390f35b61051c600480360360408110156104fc57600080fd5b810190808035906020019092919080359060200190929190505050610efb565b005b61054a6004803603602081101561053457600080fd5b810190808035906020019092919050505061122e565b604051808273ffffffffffffffffffffffffffffffffffffffff16815260200191505060405180910390f35b61057e611265565b6040518080602001828103825283818151815260200191508051906020019080838360005b838110156105be5780820151818401526020810190506105a3565b50505050905090810190601f1680156105eb5780820380516001836020036101000a031916815260200191505b509250505060405180910390f35b61063b6004803603602081101561060f57600080fd5b81019080803573ffffffffffffffffffffffffffffffffffffffff169060200190929190505050611307565b6040518082815260200191505060405180910390f35b6106596113dc565b60405180821515815260200191505060405180910390f35b610679611533565b60405180821515815260200191505060405180910390f35b6106d3600480360360208110156106a757600080fd5b81019080803573ffffffffffffffffffffffffffffffffffffffff169060200190929190505050611619565b60405180821515815260200191505060405180910390f35b6106f3611639565b6040518080602001828103825283818151815260200191508051906020019080838360005b83811015610733578082015181840152602081019050610718565b50505050905090810190601f1680156107605780820380516001836020036101000a031916815260200191505b509250505060405180910390f35b6107bc6004803603604081101561078457600080fd5b81019080803573ffffffffffffffffffffffffffffffffffffffff1690602001909291908035151590602001909291905050506116db565b005b6107ea600480360360208110156107d457600080fd5b8101908080359060200190929190505050611891565b6040518082815260200191505060405180910390f35b6109036004803603608081101561081657600080fd5b81019080803573ffffffffffffffffffffffffffffffffffffffff169060200190929190803573ffffffffffffffffffffffffffffffffffffffff169060200190929190803590602001909291908035906020019064010000000081111561087d57600080fd5b82018360208201111561088f57600080fd5b803590602001918460018302840111640100000000831117156108b157600080fd5b91908080601f016020809104026020016040519081016040528093929190818152602001838380828437600081840152601f19601f8201169050808301925050505050505091929192905050506118d9565b005b6109316004803603602081101561091b57600080fd5b8101908080359060200190929190505050611951565b6040518080602001828103825283818151815260200191508051906020019080838360005b83811015610971578082015181840152602081019050610956565b50505050905090810190601f16801561099e5780820380516001836020036101000a031916815260200191505b509250505060405180910390f35b6109d8600480360360208110156109c257600080fd5b8101908080359060200190929190505050611c22565b604051808760058111156109e857fe5b81526020018615158152602001858152602001848152602001838152602001828152602001965050505050505060405180910390f35b610a8060048036036040811015610a3457600080fd5b81019080803573ffffffffffffffffffffffffffffffffffffffff169060200190929190803573ffffffffffffffffffffffffffffffffffffffff169060200190929190505050611c78565b60405180821515815260200191505060405180910390f35b610ac460048036036020811015610aae57600080fd5b8101908080359060200190929190505050611d0c565b60405180821515815260200191505060405180910390f35b6000806000837bffffffffffffffffffffffffffffffffffffffffffffffffffffffff19167bffffffffffffffffffffffffffffffffffffffffffffffffffffffff1916815260200190815260200160002060009054906101000a900460ff169050919050565b606060068054600181600116156101000203166002900480601f016020809104026020016040519081016040528092919081815260200182805460018160011615610100020316600290048015610bdb5780601f10610bb057610100808354040283529160200191610bdb565b820191906000526020600020905b815481529060010190602001808311610bbe57829003601f168201915b5050505050905090565b6000610bf082611dc2565b610c45576040517f08c379a000000000000000000000000000000000000000000000000000000000815260040180806020018281038252602c8152602001806137c3602c913960400191505060405180910390fd5b6004600083815260200190815260200160002060009054906101000a900473ffffffffffffffffffffffffffffffffffffffff169050919050565b6000610c8b8261122e565b90508073ffffffffffffffffffffffffffffffffffffffff168373ffffffffffffffffffffffffffffffffffffffff161415610d12576040517f08c379a00000000000000000000000000000000000000000000000000000000081526004018080602001828103825260218152602001806138476021913960400191505060405180910390fd5b8073ffffffffffffffffffffffffffffffffffffffff16610d31611ddf565b73ffffffffffffffffffffffffffffffffffffffff161480610d605750610d5f81610d5a611ddf565b611c78565b5b610db5576040517f08c379a00000000000000000000000000000000000000000000000000000000081526004018080602001828103825260388152602001806137166038913960400191505060405180910390fd5b610dbf8383611de7565b505050565b6000610dd06002611ea0565b905090565b610de6610de0611ddf565b82611eb5565b610e3b576040517f08c379a00000000000000000000000000000000000000000000000000000000081526004018080602001828103825260318152602001806138686031913960400191505060405180910390fd5b610e46838383611fa9565b505050565b6000610e9e82600160008673ffffffffffffffffffffffffffffffffffffffff1673ffffffffffffffffffffffffffffffffffffffff1681526020019081526020016000206121ec90919063ffffffff16565b905092915050565b610ec1838383604051806020016040528060008152506118d9565b505050565b6000610ed182611dc2565b9050919050565b600080610eef83600261220690919063ffffffff16565b50905080915050919050565b600b60003373ffffffffffffffffffffffffffffffffffffffff1673ffffffffffffffffffffffffffffffffffffffff16815260200190815260200160002060009054906101000a900460ff16610f9d576040517f08c379a000000000000000000000000000000000000000000000000000000000815260040180806020018281038252603281526020018061363c6032913960400191505060405180910390fd5b600073ffffffffffffffffffffffffffffffffffffffff163373ffffffffffffffffffffffffffffffffffffffff161415611023576040517f08c379a000000000000000000000000000000000000000000000000000000000815260040180806020018281038252602a81526020018061374e602a913960400191505060405180910390fd5b61102c8161122e565b73ffffffffffffffffffffffffffffffffffffffff1661104b8361122e565b73ffffffffffffffffffffffffffffffffffffffff16146110b7576040517f08c379a00000000000000000000000000000000000000000000000000000000081526004018080602001828103825260418152602001806138996041913960600191505060405180910390fd5b6000600c600084815260200190815260200160002060000160009054906101000a900460ff1690506000806110ec6002611891565b146110f85760006110fb565b60015b90506000611135600c600087815260200190815260200160002060010154600c600087815260200190815260200160002060010154612232565b9050600061116f600c600088815260200190815260200160002060020154600c600088815260200190815260200160002060020154612232565b905060006111a9600c600089815260200190815260200160002060030154600c600089815260200190815260200160002060030154612232565b905060006111e3600c60008a815260200190815260200160002060040154600c60008a815260200190815260200160002060040154612232565b905060006040518060c001604052808860058111156111fe57fe5b81526020018715158152602001868152602001858152602001848152602001838152509050505050505050505050565b600061125e826040518060600160405280602981526020016137786029913960026122749092919063ffffffff16565b9050919050565b606060098054600181600116156101000203166002900480601f0160208091040260200160405190810160405280929190818152602001828054600181600116156101000203166002900480156112fd5780601f106112d2576101008083540402835291602001916112fd565b820191906000526020600020905b8154815290600101906020018083116112e057829003601f168201915b5050505050905090565b60008073ffffffffffffffffffffffffffffffffffffffff168273ffffffffffffffffffffffffffffffffffffffff16141561138e576040517f08c379a000000000000000000000000000000000000000000000000000000000815260040180806020018281038252602a81526020018061374e602a913960400191505060405180910390fd5b6113d5600160008473ffffffffffffffffffffffffffffffffffffffff1673ffffffffffffffffffffffffffffffffffffffff168152602001908152602001600020612293565b9050919050565b6000600b60003373ffffffffffffffffffffffffffffffffffffffff1673ffffffffffffffffffffffffffffffffffffffff16815260200190815260200160002060009054906101000a900460ff16611480576040517f08c379a000000000000000000000000000000000000000000000000000000000815260040180806020018281038252603281526020018061363c6032913960400191505060405180910390fd5b600073ffffffffffffffffffffffffffffffffffffffff163373ffffffffffffffffffffffffffffffffffffffff161415611506576040517f08c379a000000000000000000000000000000000000000000000000000000000815260040180806020018281038252602a81526020018061374e602a913960400191505060405180910390fd5b61150e6122a8565b5061151b33600a5461240c565b6001600a600082825401925050819055506001905090565b60008073ffffffffffffffffffffffffffffffffffffffff163373ffffffffffffffffffffffffffffffffffffffff1614156115ba576040517f08c379a000000000000000000000000000000000000000000000000000000000815260040180806020018281038252602a81526020018061374e602a913960400191505060405180910390fd5b6001600b60003373ffffffffffffffffffffffffffffffffffffffff1673ffffffffffffffffffffffffffffffffffffffff16815260200190815260200160002060006101000a81548160ff0219169083151502179055506001905090565b600b6020528060005260406000206000915054906101000a900460ff1681565b606060078054600181600116156101000203166002900480601f0160208091040260200160405190810160405280929190818152602001828054600181600116156101000203166002900480156116d15780601f106116a6576101008083540402835291602001916116d1565b820191906000526020600020905b8154815290600101906020018083116116b457829003601f168201915b5050505050905090565b6116e3611ddf565b73ffffffffffffffffffffffffffffffffffffffff168273ffffffffffffffffffffffffffffffffffffffff161415611784576040517f08c379a00000000000000000000000000000000000000000000000000000000081526004018080602001828103825260198152602001807f4552433732313a20617070726f766520746f2063616c6c65720000000000000081525060200191505060405180910390fd5b8060056000611791611ddf565b73ffffffffffffffffffffffffffffffffffffffff1673ffffffffffffffffffffffffffffffffffffffff16815260200190815260200160002060008473ffffffffffffffffffffffffffffffffffffffff1673ffffffffffffffffffffffffffffffffffffffff16815260200190815260200160002060006101000a81548160ff0219169083151502179055508173ffffffffffffffffffffffffffffffffffffffff1661183e611ddf565b73ffffffffffffffffffffffffffffffffffffffff167f17307eab39ab6107e8899845ad3d59bd9653f200f220920489ca2b5937696c318360405180821515815260200191505060405180910390a35050565b60006118d260014303404260405160200180838152602001828152602001925050506040516020818303038152906040528051906020012060001c8361242a565b9050919050565b6118ea6118e4611ddf565b83611eb5565b61193f576040517f08c379a00000000000000000000000000000000000000000000000000000000081526004018080602001828103825260318152602001806138686031913960400191505060405180910390fd5b61194b848484846124b3565b50505050565b606061195c82611dc2565b6119b1576040517f08c379a000000000000000000000000000000000000000000000000000000000815260040180806020018281038252602f815260200180613818602f913960400191505060405180910390fd5b6000600860008481526020019081526020016000208054600181600116156101000203166002900480601f016020809104026020016040519081016040528092919081815260200182805460018160011615610100020316600290048015611a5a5780601f10611a2f57610100808354040283529160200191611a5a565b820191906000526020600020905b815481529060010190602001808311611a3d57829003601f168201915b505050505090506000611a6b611265565b9050600081511415611a81578192505050611c1d565b600082511115611b525780826040516020018083805190602001908083835b60208310611ac35780518252602082019150602081019050602083039250611aa0565b6001836020036101000a03801982511681845116808217855250505050505090500182805190602001908083835b60208310611b145780518252602082019150602081019050602083039250611af1565b6001836020036101000a0380198251168184511680821785525050505050509050019250505060405160208183030381529060405292505050611c1d565b80611b5c85612525565b6040516020018083805190602001908083835b60208310611b925780518252602082019150602081019050602083039250611b6f565b6001836020036101000a03801982511681845116808217855250505050505090500182805190602001908083835b60208310611be35780518252602082019150602081019050602083039250611bc0565b6001836020036101000a03801982511681845116808217855250505050505090500192505050604051602081830303815290604052925050505b919050565b600c6020528060005260406000206000915090508060000160009054906101000a900460ff16908060000160019054906101000a900460ff16908060010154908060020154908060030154908060040154905086565b6000600560008473ffffffffffffffffffffffffffffffffffffffff1673ffffffffffffffffffffffffffffffffffffffff16815260200190815260200160002060008373ffffffffffffffffffffffffffffffffffffffff1673ffffffffffffffffffffffffffffffffffffffff16815260200190815260200160002060009054906101000a900460ff16905092915050565b6000600b60003373ffffffffffffffffffffffffffffffffffffffff1673ffffffffffffffffffffffffffffffffffffffff16815260200190815260200160002060009054906101000a900460ff16611db0576040517f08c379a000000000000000000000000000000000000000000000000000000000815260040180806020018281038252603281526020018061363c6032913960400191505060405180910390fd5b611db98261266c565b60019050919050565b6000611dd88260026127a690919063ffffffff16565b9050919050565b600033905090565b816004600083815260200190815260200160002060006101000a81548173ffffffffffffffffffffffffffffffffffffffff021916908373ffffffffffffffffffffffffffffffffffffffff160217905550808273ffffffffffffffffffffffffffffffffffffffff16611e5a8361122e565b73ffffffffffffffffffffffffffffffffffffffff167f8c5be1e5ebec7d5bd14f71427d1e84f3dd0314c0f7b2291e5b200ac8c7c3b92560405160405180910390a45050565b6000611eae826000016127c0565b9050919050565b6000611ec082611dc2565b611f15576040517f08c379a000000000000000000000000000000000000000000000000000000000815260040180806020018281038252602c8152602001806136ea602c913960400191505060405180910390fd5b6000611f208361122e565b90508073ffffffffffffffffffffffffffffffffffffffff168473ffffffffffffffffffffffffffffffffffffffff161480611f8f57508373ffffffffffffffffffffffffffffffffffffffff16611f7784610be5565b73ffffffffffffffffffffffffffffffffffffffff16145b80611fa05750611f9f8185611c78565b5b91505092915050565b8273ffffffffffffffffffffffffffffffffffffffff16611fc98261122e565b73ffffffffffffffffffffffffffffffffffffffff1614612035576040517f08c379a00000000000000000000000000000000000000000000000000000000081526004018080602001828103825260298152602001806137ef6029913960400191505060405180910390fd5b600073ffffffffffffffffffffffffffffffffffffffff168273ffffffffffffffffffffffffffffffffffffffff1614156120bb576040517f08c379a00000000000000000000000000000000000000000000000000000000081526004018080602001828103825260248152602001806136a06024913960400191505060405180910390fd5b6120c68383836127d1565b6120d1600082611de7565b61212281600160008673ffffffffffffffffffffffffffffffffffffffff1673ffffffffffffffffffffffffffffffffffffffff1681526020019081526020016000206127d690919063ffffffff16565b5061217481600160008573ffffffffffffffffffffffffffffffffffffffff1673ffffffffffffffffffffffffffffffffffffffff1681526020019081526020016000206127f090919063ffffffff16565b5061218b8183600261280a9092919063ffffffff16565b50808273ffffffffffffffffffffffffffffffffffffffff168473ffffffffffffffffffffffffffffffffffffffff167fddf252ad1be2c89b69c2b068fc378daa952ba7f163c4a11628f55a4df523b3ef60405160405180910390a4505050565b60006121fb836000018361283f565b60001c905092915050565b60008060008061221986600001866128c2565b915091508160001c8160001c9350935050509250929050565b6000600280838161223f57fe5b066002858161224a57fe5b06018161225357fe5b046002838161225e57fe5b046002858161226957fe5b040101905092915050565b6000612287846000018460001b8461295b565b60001c90509392505050565b60006122a182600001612a51565b9050919050565b6000806122bf6005808111156122ba57fe5b611891565b60058111156122ca57fe5b90506000806122d96002611891565b146122e55760006122e8565b60015b905060006122f66005611891565b9050600061230e600a612309600a611891565b612a62565b9050600061232660326123216032611891565b612a62565b905060006123346064611891565b905060006040518060c0016040528088600581111561234f57fe5b8152602001871515815260200186815260200185815260200184815260200183815250905080600c6000600a54815260200190815260200160002060008201518160000160006101000a81548160ff021916908360058111156123ae57fe5b021790555060208201518160000160016101000a81548160ff02191690831515021790555060408201518160010155606082015181600201556080820151816003015560a08201518160040155905050600197505050505050505090565b612426828260405180602001604052806000815250612aea565b5050565b60008082116124a1576040517f08c379a00000000000000000000000000000000000000000000000000000000081526004018080602001828103825260188152602001807f536166654d6174683a206d6f64756c6f206279207a65726f000000000000000081525060200191505060405180910390fd5b8183816124aa57fe5b06905092915050565b6124be848484611fa9565b6124ca84848484612b5b565b61251f576040517f08c379a000000000000000000000000000000000000000000000000000000000815260040180806020018281038252603281526020018061366e6032913960400191505060405180910390fd5b50505050565b6060600082141561256d576040518060400160405280600181526020017f30000000000000000000000000000000000000000000000000000000000000008152509050612667565b600082905060005b60008214612597578080600101915050600a828161258f57fe5b049150612575565b60008167ffffffffffffffff811180156125b057600080fd5b506040519080825280601f01601f1916602001820160405280156125e35781602001600182028036833780820191505090505b50905060006001830390508593505b6000841461265f57600a848161260457fe5b0660300160f81b8282806001900393508151811061261e57fe5b60200101907effffffffffffffffffffffffffffffffffffffffffffffffffffffffffffff1916908160001a905350600a848161265757fe5b0493506125f2565b819450505050505b919050565b60006126778261122e565b9050612685816000846127d1565b612690600083611de7565b600060086000848152602001908152602001600020805460018160011615610100020316600290049050146126df576008600083815260200190815260200160002060006126de91906135b4565b5b61273082600160008473ffffffffffffffffffffffffffffffffffffffff1673ffffffffffffffffffffffffffffffffffffffff1681526020019081526020016000206127d690919063ffffffff16565b50612745826002612d7490919063ffffffff16565b5081600073ffffffffffffffffffffffffffffffffffffffff168273ffffffffffffffffffffffffffffffffffffffff167fddf252ad1be2c89b69c2b068fc378daa952ba7f163c4a11628f55a4df523b3ef60405160405180910390a45050565b60006127b8836000018360001b612d8e565b905092915050565b600081600001805490509050919050565b505050565b60006127e8836000018360001b612db1565b905092915050565b6000612802836000018360001b612e99565b905092915050565b6000612836846000018460001b8473ffffffffffffffffffffffffffffffffffffffff1660001b612f09565b90509392505050565b6000818360000180549050116128a0576040517f08c379a000000000000000000000000000000000000000000000000000000000815260040180806020018281038252602281526020018061361a6022913960400191505060405180910390fd5b8260000182815481106128af57fe5b9060005260206000200154905092915050565b60008082846000018054905011612924576040517f08c379a00000000000000000000000000000000000000000000000000000000081526004018080602001828103825260228152602001806137a16022913960400191505060405180910390fd5b600084600001848154811061293557fe5b906000526020600020906002020190508060000154816001015492509250509250929050565b60008084600101600085815260200190815260200160002054905060008114158390612a22576040517f08c379a00000000000000000000000000000000000000000000000000000000081526004018080602001828103825283818151815260200191508051906020019080838360005b838110156129e75780820151818401526020810190506129cc565b50505050905090810190601f168015612a145780820380516001836020036101000a031916815260200191505b509250505060405180910390fd5b50846000016001820381548110612a3557fe5b9060005260206000209060020201600101549150509392505050565b600081600001805490509050919050565b600080828401905083811015612ae0576040517f08c379a000000000000000000000000000000000000000000000000000000000815260040180806020018281038252601b8152602001807f536166654d6174683a206164646974696f6e206f766572666c6f77000000000081525060200191505060405180910390fd5b8091505092915050565b612af48383612fe5565b612b016000848484612b5b565b612b56576040517f08c379a000000000000000000000000000000000000000000000000000000000815260040180806020018281038252603281526020018061366e6032913960400191505060405180910390fd5b505050565b6000612b7c8473ffffffffffffffffffffffffffffffffffffffff166131d9565b612b895760019050612d6c565b6000612cf363150b7a0260e01b612b9e611ddf565b888787604051602401808573ffffffffffffffffffffffffffffffffffffffff1681526020018473ffffffffffffffffffffffffffffffffffffffff16815260200183815260200180602001828103825283818151815260200191508051906020019080838360005b83811015612c22578082015181840152602081019050612c07565b50505050905090810190601f168015612c4f5780820380516001836020036101000a031916815260200191505b5095505050505050604051602081830303815290604052907bffffffffffffffffffffffffffffffffffffffffffffffffffffffff19166020820180517bffffffffffffffffffffffffffffffffffffffffffffffffffffffff838183161783525050505060405180606001604052806032815260200161366e603291398773ffffffffffffffffffffffffffffffffffffffff166131ec9092919063ffffffff16565b90506000818060200190516020811015612d0c57600080fd5b8101908080519060200190929190505050905063150b7a0260e01b7bffffffffffffffffffffffffffffffffffffffffffffffffffffffff1916817bffffffffffffffffffffffffffffffffffffffffffffffffffffffff191614925050505b949350505050565b6000612d86836000018360001b613204565b905092915050565b600080836001016000848152602001908152602001600020541415905092915050565b60008083600101600084815260200190815260200160002054905060008114612e8d5760006001820390506000600186600001805490500390506000866000018281548110612dfc57fe5b9060005260206000200154905080876000018481548110612e1957fe5b9060005260206000200181905550600183018760010160008381526020019081526020016000208190555086600001805480612e5157fe5b60019003818190600052602060002001600090559055866001016000878152602001908152602001600020600090556001945050505050612e93565b60009150505b92915050565b6000612ea5838361331d565b612efe578260000182908060018154018082558091505060019003906000526020600020016000909190919091505582600001805490508360010160008481526020019081526020016000208190555060019050612f03565b600090505b92915050565b6000808460010160008581526020019081526020016000205490506000811415612fb057846000016040518060400160405280868152602001858152509080600181540180825580915050600190039060005260206000209060020201600090919091909150600082015181600001556020820151816001015550508460000180549050856001016000868152602001908152602001600020819055506001915050612fde565b82856000016001830381548110612fc357fe5b90600052602060002090600202016001018190555060009150505b9392505050565b600073ffffffffffffffffffffffffffffffffffffffff168273ffffffffffffffffffffffffffffffffffffffff161415613088576040517f08c379a00000000000000000000000000000000000000000000000000000000081526004018080602001828103825260208152602001807f4552433732313a206d696e7420746f20746865207a65726f206164647265737381525060200191505060405180910390fd5b61309181611dc2565b15613104576040517f08c379a000000000000000000000000000000000000000000000000000000000815260040180806020018281038252601c8152602001807f4552433732313a20746f6b656e20616c7265616479206d696e7465640000000081525060200191505060405180910390fd5b613110600083836127d1565b61316181600160008573ffffffffffffffffffffffffffffffffffffffff1673ffffffffffffffffffffffffffffffffffffffff1681526020019081526020016000206127f090919063ffffffff16565b506131788183600261280a9092919063ffffffff16565b50808273ffffffffffffffffffffffffffffffffffffffff16600073ffffffffffffffffffffffffffffffffffffffff167fddf252ad1be2c89b69c2b068fc378daa952ba7f163c4a11628f55a4df523b3ef60405160405180910390a45050565b600080823b905060008111915050919050565b60606131fb8484600085613340565b90509392505050565b60008083600101600084815260200190815260200160002054905060008114613311576000600182039050600060018660000180549050039050600086600001828154811061324f57fe5b906000526020600020906002020190508087600001848154811061326f57fe5b90600052602060002090600202016000820154816000015560018201548160010155905050600183018760010160008360000154815260200190815260200160002081905550866000018054806132c257fe5b6001900381819060005260206000209060020201600080820160009055600182016000905550509055866001016000878152602001908152602001600020600090556001945050505050613317565b60009150505b92915050565b600080836001016000848152602001908152602001600020541415905092915050565b60608247101561339b576040517f08c379a00000000000000000000000000000000000000000000000000000000081526004018080602001828103825260268152602001806136c46026913960400191505060405180910390fd5b6133a4856131d9565b613416576040517f08c379a000000000000000000000000000000000000000000000000000000000815260040180806020018281038252601d8152602001807f416464726573733a2063616c6c20746f206e6f6e2d636f6e747261637400000081525060200191505060405180910390fd5b6000808673ffffffffffffffffffffffffffffffffffffffff1685876040518082805190602001908083835b602083106134655780518252602082019150602081019050602083039250613442565b6001836020036101000a03801982511681845116808217855250505050505090500191505060006040518083038185875af1925050503d80600081146134c7576040519150601f19603f3d011682016040523d82523d6000602084013e6134cc565b606091505b50915091506134dc8282866134e8565b92505050949350505050565b606083156134f8578290506135ad565b60008351111561350b5782518084602001fd5b816040517f08c379a00000000000000000000000000000000000000000000000000000000081526004018080602001828103825283818151815260200191508051906020019080838360005b83811015613572578082015181840152602081019050613557565b50505050905090810190601f16801561359f5780820380516001836020036101000a031916815260200191505b509250505060405180910390fd5b9392505050565b50805460018160011615610100020316600290046000825580601f106135da57506135f9565b601f0160209004906000526020600020908101906135f891906135fc565b5b50565b5b808211156136155760008160009055506001016135fd565b509056fe456e756d657261626c655365743a20696e646578206f7574206f6620626f756e6473416c6c6f7765643a2075736572206973206e6f7420616c6c6f77656420746f2063616c6c20746869732066756e6374696f6e4552433732313a207472616e7366657220746f206e6f6e20455243373231526563656976657220696d706c656d656e7465724552433732313a207472616e7366657220746f20746865207a65726f2061646472657373416464726573733a20696e73756666696369656e742062616c616e636520666f722063616c6c4552433732313a206f70657261746f7220717565727920666f72206e6f6e6578697374656e7420746f6b656e4552433732313a20617070726f76652063616c6c6572206973206e6f74206f776e6572206e6f7220617070726f76656420666f7220616c6c4552433732313a2062616c616e636520717565727920666f7220746865207a65726f20616464726573734552433732313a206f776e657220717565727920666f72206e6f6e6578697374656e7420746f6b656e456e756d657261626c654d61703a20696e646578206f7574206f6620626f756e64734552433732313a20617070726f76656420717565727920666f72206e6f6e6578697374656e7420746f6b656e4552433732313a207472616e73666572206f6620746f6b656e2074686174206973206e6f74206f776e4552433732314d657461646174613a2055524920717565727920666f72206e6f6e6578697374656e7420746f6b656e4552433732313a20617070726f76616c20746f2063757272656e74206f776e65724552433732313a207472616e736665722063616c6c6572206973206e6f74206f776e6572206e6f7220617070726f766564626f746820746f6b656e206d7573742062652066726f6d207468652073616d6520746f6b656e20686f6c64657220696e206f7264657220746f2062652062726564a2646970667358221220846ab80201171af6d8ef04c532714b602b711652b98a43f87a5a2b245469823064736f6c63430007060033",
  "immutableReferences": {},
  "source": "pragma solidity ^0.7.6;\n\nimport '../node_modules/@openzeppelin/contracts/token/ERC721/ERC721.sol';\nimport '../node_modules/@openzeppelin/contracts/math/Math.sol';\nimport '../node_modules/@openzeppelin/contracts/math/SafeMath.sol';\n\ncontract Dragon is ERC721 {\n\n    using SafeMath for uint;\n    using Math for uint;\n\n    uint256 private _numToken;\n\n    mapping (address => bool) public allowedBreeders;\n    \n    // uint256 == tokenId\n    mapping (uint256 => Characteristics) public metadata;\n    \n    enum Element{ FIRE, WATER, ELECTRICAL, DARKNESS, AIR, GROUND }\n    \n    struct Characteristics {\n        Element elem; //element entre 1 et 6\n        bool male; // 0 F / 1 M\n        uint256 defense;\n        uint256 attack;       \n        uint256 hp; \n        uint256 init;\n    }   \n    \n    constructor() ERC721 (\"Dragon\", \"DRG\"){ \n        _numToken = 0;\n    }\n\n    function registerBreed() public notZeroAddress returns(bool) {\n        allowedBreeders[msg.sender] = true;\n        return true;\n    }\n\n    function exist(uint256 tokenId) public returns(bool) {\n        return _exists(tokenId);\n    }\n    \n    function random(uint256 modulo) public returns (uint256) {\n      return SafeMath.mod(uint(keccak256(abi.encodePacked(\n            blockhash(block.number - 1),\n            block.timestamp\n        ))), modulo);\n    }\n   \n\n\n    function declareAnimal() public onlyAllowed notZeroAddress returns(bool) {\n    // call _mint\n        metadataGenerator();\n        _safeMint(msg.sender, _numToken);\n        _numToken += 1;\n        return true;\n    }\n\n    function metadataGenerator() private returns(bool){\n        Element elem = Element(random(uint(Element.GROUND)));\n        bool gender = random(2) == 0 ? true : false;\n        uint256 defense = random(5);\n        uint256 attack = SafeMath.add(10, random(10));\n        uint256 hp = SafeMath.add(50, random(50));\n        uint256 init = random(100);\n        Characteristics memory randomCharac = Characteristics(elem, gender, defense, attack, hp, init);\n        metadata[_numToken] = randomCharac;\n        return true;\n    }\n\n\n\n    function deadAnimal(uint256 _tokenId) public onlyAllowed returns(bool) {\n        // call _burn\n        _burn(_tokenId);\n        return true;\n    }\n\n\n\n    function breedAnimal(uint256 _tokenId1, uint256 _tokenId2) public onlyAllowed notZeroAddress {\n        require(ownerOf(_tokenId1) == ownerOf(_tokenId2), 'both token must be from the same token holder in order to be bred');\n        Element elem = metadata[_tokenId1].elem;\n        bool gender = random(2) == 0 ? true : false;\n        uint256 defense = Math.average(metadata[_tokenId1].defense, metadata[_tokenId2].defense);\n        uint256 attack = Math.average(metadata[_tokenId1].attack, metadata[_tokenId2].attack);\n        uint256 hp = Math.average(metadata[_tokenId1].hp, metadata[_tokenId2].hp);\n        uint256 init = Math.average(metadata[_tokenId1].init, metadata[_tokenId2].init);\n        Characteristics memory randomCharac = Characteristics(elem, gender, defense, attack, hp, init);\n    }\n\n    \n    /**\n     * @dev Throws if called by any account other than the allowed ones.\n     */\n    modifier onlyAllowed()  {\n        require(allowedBreeders[msg.sender], \"Allowed: user is not allowed to call this function\");\n        _;\n    }\n\n    modifier notZeroAddress() {\n        require(msg.sender != address(0), \"ERC721: balance query for the zero address\");\n        _;\n    }\n}",
  "sourcePath": "/Users/hderoche/project/cryptoNFT/contracts/Dragon.sol",
  "compiler": {
    "name": "solc",
    "version": "0.7.6+commit.7338295f.Emscripten.clang"
  },
  "schemaVersion": "3.3.3",
  "updatedAt": "2021-03-21T21:05:01.045Z",
  "networkType": "ethereum",
  "devdoc": {
    "kind": "dev",
    "methods": {
      "approve(address,uint256)": {
        "details": "See {IERC721-approve}."
      },
      "balanceOf(address)": {
        "details": "See {IERC721-balanceOf}."
      },
      "baseURI()": {
        "details": "Returns the base URI set via {_setBaseURI}. This will be automatically added as a prefix in {tokenURI} to each token's URI, or to the token ID if no specific URI is set for that token ID."
      },
      "getApproved(uint256)": {
        "details": "See {IERC721-getApproved}."
      },
      "isApprovedForAll(address,address)": {
        "details": "See {IERC721-isApprovedForAll}."
      },
      "name()": {
        "details": "See {IERC721Metadata-name}."
      },
      "ownerOf(uint256)": {
        "details": "See {IERC721-ownerOf}."
      },
      "safeTransferFrom(address,address,uint256)": {
        "details": "See {IERC721-safeTransferFrom}."
      },
      "safeTransferFrom(address,address,uint256,bytes)": {
        "details": "See {IERC721-safeTransferFrom}."
      },
      "setApprovalForAll(address,bool)": {
        "details": "See {IERC721-setApprovalForAll}."
      },
      "supportsInterface(bytes4)": {
        "details": "See {IERC165-supportsInterface}. Time complexity O(1), guaranteed to always use less than 30 000 gas."
      },
      "symbol()": {
        "details": "See {IERC721Metadata-symbol}."
      },
      "tokenByIndex(uint256)": {
        "details": "See {IERC721Enumerable-tokenByIndex}."
      },
      "tokenOfOwnerByIndex(address,uint256)": {
        "details": "See {IERC721Enumerable-tokenOfOwnerByIndex}."
      },
      "tokenURI(uint256)": {
        "details": "See {IERC721Metadata-tokenURI}."
      },
      "totalSupply()": {
        "details": "See {IERC721Enumerable-totalSupply}."
      },
      "transferFrom(address,address,uint256)": {
        "details": "See {IERC721-transferFrom}."
      }
    },
    "version": 1
  },
  "userdoc": {
    "kind": "user",
    "methods": {},
    "version": 1
  }
}